:020000040000FA
:100000000C9466010C946E0E0C94430E0C94180E16
:100010000C94ED0D0C94C20D0C94970D0C946C0D7A
:100020000C94410D0C9497010C9497010C9497013A
:100030000C9497010C9497010C9497010C949701E0
:100040000C9497010C9497010C9497010C949701D0
:100050000C9497010C9497010C9497010C94F70C55
:100060000C9497010C94C10C0C94970C0C94970170
:100070000C9497010C9497010C9497010C949701A0
:100080000C9497010C9497010C9497010C94970190
:100090000C9497010C9497010C9497010C94990E71
:1000A0000C9497010C9497010C9497010C94970170
:1000B0000C9497010C9497010C9497010C94970160
:1000C0000C9497010C9497010C9497010C94970150
:1000D0000C9497010C9497010C9497010C94970140
:1000E0000C9497010C949C010C9457030C942E03D0
:1000F0000C948A040C941A050C943A050C944D0344
:100100000C943C030C9434030C9482060C947202FD
:100110000C9452050C945A050C9460060C944303FD
:100120000C946E030C9410050C946F060C943A0218
:100130000C9472050C945B030C94CC070C94CF07C1
:100140000C9461030C9454050C9438030C94BD0F6B
:100150000C9465030C9428050C9440030C94BF0286
:100160000C94F9120C9478050C94D5080C94C901E0
:100170000C9473030C942C020C9464050C94990158
:100180000C949B010C946F030C9449030C94890606
:100190000C949A010C94D8010C94B6060C94530359
:1001A0000C9469030C945F060000210024002700D2
:1001B0002A002D0030003300010100000401070176
:1001C0000A0100002200250028002B002E0031002B
:1001D000340002010000050108010B0100002000AD
:1001E0002300260029002C002F003200000100000F
:1001F00003010601090105050505070508080808AA
:10020000020202020A0A08080404040401010101AE
:1002100001010101030303030303030304070707A9
:100220000C0C0C0C0C0C0C0C02020202060606064E
:10023000060606060B0B0B0B0B0B0B0B010210201B
:10024000200808102040102040800201020108040C
:1002500002010102040810204080804020100804A0
:1002600002018004020180402010080402010804F9
:10027000020101020408102040800102040810203D
:10028000408000000A0B02090C0D0E080703040150
:10029000000000000000000000000000000000005E
:1002A000000000000000000000000000000012112B
:1002B000100000000000000000000000000000002E
:1002C0000000000000000000BD0FF91211241FBE45
:1002D000CFEFD1E2DEBFCDBF00E00CBF25E0ACED3B
:1002E000B3E001C01D92A43DB207E1F713E0A0E026
:1002F000B2E0E6E4FBE200E00BBF02C007900D9223
:10030000AC3DB107D9F711E0C5E6D1E000E006C089
:1003100021970109802FFE010E945613C436D10790
:1003200080E00807A9F70E9440100C9491150C94E6
:100330000000089508950895AF92BF92CF92DF9282
:10034000EF92FF920F931F93CF93DF936C017B018A
:100350008B01040F151FEB015E01AE18BF08C0171B
:10036000D10759F06991D601ED91FC910190F0818E
:10037000E02DC6011995892B79F7C501DF91CF9141
:100380001F910F91FF90EF90DF90CF90BF90AF90B3
:100390000895FC01538D448D252F30E0842F90E08B
:1003A000821B930B541710F0CF9608950197089570
:1003B000FC01918D828D981761F0A28DAE0FBF2F39
:1003C000B11D5D968C91928D9F5F9F73928F90E08F
:1003D00008958FEF9FEF08952FB7F8948091A304AD
:1003E0009091A404A091A504B091A6042FBF80937E
:1003F000AF049093B004A093B104B093B20487EA21
:1004000094E00E94D80197FF26C02FB7F8948091FE
:10041000A3049091A404A091A504B091A6042FBFB9
:100420004091AF045091B0046091B1047091B20456
:10043000841B950BA60BB70B4091AB045091AC04F9
:100440006091AD047091AE0484179507A607B707B5
:10045000B0F28FEF9FEF0895FC01918D828D981778
:1004600031F0828DE80FF11D858D90E008958FEFBA
:100470009FEF0895FC01918D228D892F90E0805C83
:100480009F4F821B91098F739927089587EA94E003
:100490000E943A0221E0892B09F420E0822F08957E
:1004A000FC01A48DA80FB92FB11DA35ABF4F2C91E9
:1004B000848D90E001968F739927848FA689B789E0
:1004C0002C93A089B1898C91837080648C93938DD7
:1004D000848D981306C00288F389E02D80818F7D7A
:1004E00080830895EF92FF920F931F93CF93DF9332
:1004F000EC0181E0888F9B8D8C8D98131AC0E88960
:10050000F989808185FF15C09FB7F894EE89FF892E
:100510006083E889F98980818370806480839FBFCC
:1005200081E090E0DF91CF911F910F91FF90EF90CC
:100530000895F62E0B8D10E00F5F1F4F0F731127DC
:10054000E02E8C8D8E110CC00FB607FCFACFE88917
:10055000F989808185FFF5CFCE010E945002F1CF4D
:10056000EB8DEC0FFD2FF11DE35AFF4FF0829FB78B
:10057000F8940B8FEA89FB8980818062CFCFCF937B
:10058000DF93EC01888D8823B9F0AA89BB89E889BB
:10059000F9898C9185FD03C0808186FD0DC00FB661
:1005A00007FCF7CF8C9185FFF2CF808185FFEDCFDF
:1005B000CE010E945002E9CFDF91CF91089580E0F3
:1005C00090E0892B29F00E94460281110E940000D0
:1005D00080E090E0892B49F080E090E0892B29F0C1
:1005E0000E94000081110E94000080E090E0892BB1
:1005F00049F080E090E0892B29F00E9400008111F1
:100600000E94000080E090E0892B49F080E090E0BB
:10061000892B29F00E94000081110C94000008959C
:100620008150823108F05AC0E82FF0E08827E45E5C
:10063000FC4F8F4F0C9456133C0340032E0334039E
:1006400038036E03430349034D03530357035B030E
:10065000610365036E0369036F0373038091800078
:100660008F77809380000895809180008F7DF9CFEF
:1006700080918000877FF5CF84B58F7784BD089502
:1006800084B58F7DFBCF8091B0008F778093B000D1
:1006900008958091B0008F7DF9CF809190008F7781
:1006A000809390000895809190008F7DF9CF809184
:1006B0009000877FF5CF8091A0008F778093A00076
:1006C00008958091A0008F7DF9CF8091A000877F51
:1006D000F5CF809120018F7780932001089580913C
:1006E00020018F7DF9CF80912001877FF5CFCF93B7
:1006F000DF93282F30E0F901EE57FD4F8491F90187
:10070000E45CFD4FD491F901EA50FE4FC491CC2333
:10071000A1F081110E941003EC2FF0E0EE0FFF1FFB
:10072000E452FE4FA591B491EC91ED2381E090E06D
:1007300009F480E0DF91CF91089580E090E0FACF56
:100740001F93CF93DF93282F30E0F901EE57FD4F31
:100750008491F901E45CFD4FD491F901EA50FE4F18
:10076000C491CC23A9F0162F81110E941003EC2F05
:10077000F0E0EE0FFF1FEE53FE4FA591B4918FB73F
:10078000F894EC91111108C0D095DE23DC938FBF53
:10079000DF91CF911F910895DE2BF8CFCF93DF9398
:1007A00090E0FC01E45CFD4F24918A509E4FFC01D7
:1007B00084918823D1F090E0880F991FFC01E855BF
:1007C000FE4FA591B491FC01EE53FE4FC591D4911B
:1007D00061110EC09FB7F8948C91E22FE0958E23A3
:1007E0008C932881E223E8839FBFDF91CF91089506
:1007F0008FB7F894EC91E22BEC938FBFF6CF0F9369
:100800001F93CF93DF93EC01862F1B861A861982E4
:1008100018821E8A1F8A188E198EE0E2F0E0FF838C
:10082000EE836C877D875F874E87398B288B1B8B88
:100830000A8B61E00E94CE0361E08E850E94CE03A8
:1008400061E088890E94CE0361E08A890E94CE031C
:100850001D8A1C8A84E090E099878887DF91CF9178
:100860001F910F9108953FB7F89480918F04909154
:100870009004A0919104B091920426B5A89B05C064
:100880002F3F19F00196A11DB11D3FBFBA2FA92F0F
:10089000982F8827BC01CD01620F711D811D911D0C
:1008A00042E0660F771F881F991F4A95D1F7089578
:1008B0008F929F92AF92BF92CF92DF92EF92FF9270
:1008C0004B015C010E9433046B017C010E943304E4
:1008D0006C197D098E099F09683E73408105910559
:1008E000A8F321E0821A9108A108B10888EEC80E89
:1008F00083E0D81EE11CF11C81149104A104B10411
:1009000029F7FF90EF90DF90CF90BF90AF909F902E
:100910008F90089508950F931F93CF93DF93EC0169
:100920008B0188859985029751F46130710509F42E
:100930003AC06CF560E00115110509F435C08885F1
:100940009985049751F40130110509F455C00CF054
:1009500035C00115110509F43EC0888599850597B4
:1009600009F0C8C00A30110508F0C4C0F801882792
:10097000E354FB4F8F4F0C94561310051A052805AE
:100980003A05520554055A0564057205780562302A
:10099000710591F060E00330110589F68C850E94A5
:1009A000A00360E005C061E08C850E94A00361E0C7
:1009B0008E850E94A003C3CF61E0F0CF0230110505
:1009C00009F10330110509F0C8CF61E08C850E9460
:1009D000A00360E01CC061E08C850E94A00360E081
:1009E0008E850E94A00361E088890E94A00360E0D8
:1009F0008A890E94A003B1CF60E08C850E94A00389
:100A000061E0EECF60E08C850E94A00361E08E85FE
:100A10000E94A00360E088890E94A00361E0E8CF03
:100A200060E08C850E94A00361E08E850E94A00397
:100A300061E009C060E08C850E94A00361E08E85C2
:100A40000E94A00360E088890E94A00360E00DC0BE
:100A500060E08C850E94A00361E08E850E94A00367
:100A600060E088890E94A00361E08A890E94A00357
:100A700061E011C060E08C850E94A00361E08E857A
:100A80000E94A00360E088890E94A00361E08A8937
:100A90000E94A00360E08C89DF91CF911F910F919C
:100AA0000C94A00361E0E7CF61E08C850E94A00375
:100AB00060E0E5CF61E08C850E94A00360E08E8558
:100AC0000E94A00361E0DFCF61E08C850E94A0035B
:100AD00060E08E850E94A00361E088890E94A003E7
:100AE00060E0D5CF61E08C850E94A00360E09DCFDF
:100AF00060E0F9CFDF91CF911F910F9108954F9250
:100B00005F926F927F928F929F92AF92BF92CF929D
:100B1000DF92EF92FF920F931F93CF93DF93EC013D
:100B200081E090E09983888300E018E084E0E82E7B
:100B3000F12C9AE0C92ED12C0115110509F448C0F9
:100B40000E9433048E889F88A88CB98C2B013C01AD
:100B5000481859086A087B088A809B80AC80BD8051
:100B6000481459046A047B0438F36E8B7F8B888F9A
:100B7000998F8A859B852881398121303105E1F45F
:100B800001969B878A872E813F818217930711F4F4
:100B90001B861A86015011098A859B85288539850F
:100BA000B6012530310509F0B7010E940113BC01DF
:100BB000CE010E948B04C0CF892B21F48E819F81AE
:100BC0009B878A878A859B8501979B878A87E2CF47
:100BD000DF91CF911F910F91FF90EF90DF90CF9019
:100BE000BF90AF909F908F907F906F905F904F904D
:100BF000089520911D04260F3327331F213231051C
:100C0000ECF420916604FC0190E080E0243069F06F
:100C100082E00895A0911D042191AC0143505C4FE6
:100C2000A40FB52FB11D2C930196861798F38091D0
:100C30001D04680F60931D0480E0089581E008950D
:100C40001092660481E0809365041092400461E094
:100C500084E10E94A00361E085E10E94A003E9EB2A
:100C6000F0E080818E7F808380818D7F808388E427
:100C70008093B80085E48093BC000895CF93DF9300
:100C800091E09093FC038823B9F0C091B800D09113
:100C9000BA008091BC008A7B8093BC0060E084E154
:100CA0000E94A00360E085E10E94A0030E9420064C
:100CB000D093BA00C093B800DF91CF910895089502
:100CC000E091A2048091A104E81730F4F0E0E4522E
:100CD000FC4F808190E008958FEF9FEF08959091F1
:100CE000A2048091A1042FEF3FEF981748F4E92F59
:100CF000F0E0E452FC4F208130E09F5F9093A2042B
:100D0000C90108958091A1049091A204891B990BB7
:100D10000895CF92DF92EF92FF920F931F93CF939C
:100D2000DF937C01CB018A0120916C04222389F09E
:100D3000EB016B01C40ED51ECC15DD0569F0699180
:100D4000D701ED91FC910190F081E02DC70119953B
:100D5000F3CF642F0E94F905C801DF91CF911F9155
:100D60000F91FF90EF90DF90CF900895CF93DF9396
:100D70001F92CDB7DEB7698320916C042223F9F06E
:100D800020919F04203258F021E030E0FC013383B1
:100D9000228390E080E00F90DF91CF9108958091C1
:100DA000A004E82FF0E0E359FB4F998190838F5F17
:100DB0008093A00480939F0481E090E0ECCF61E0F9
:100DC000CE0101960E94F905F7CFCF92DF92EF9204
:100DD000FF920F931F93CF93DF93FC01C48121E017
:100DE00020936C04C0938D041092A00410929F0471
:100DF0008385682B84E495E00E94B606D0919F0419
:100E0000D13208F092C00E9433046B017C018091C2
:100E10006604811165C082E08093660481E080935E
:100E200065048FEF8093640410926304D09362048E
:100E3000ADE6B4E0E2E4F4E080E0D81385C01092BF
:100E4000410480914104CC0FC82BC0934104809190
:100E50004004813009F07CC0109240040E943304A9
:100E60006B017C01809141048093BB0080916804F8
:100E700090916904A0916A04B0916B04892B8A2B2C
:100E80008B2B99F00E94330400916804109169043F
:100E900020916A0430916B046C197D098E099F09B9
:100EA0000617170728073907E0F18091BC0083FD7A
:100EB000D9CF85EC8093BC000E9433046B017C0188
:100EC00080916604823009F445C0809164048F3FAC
:100ED00061F180916404803241F18091640425C005
:100EE0008091680490916904A0916A04B0916B04A8
:100EF000892B8A2B8B2B09F48ACF0E943304009113
:100F000068041091690420916A0430916B046C1993
:100F10007D098E099F09061717072807390708F06A
:100F200076CF809167040E943E061092A004109232
:100F30009F0410926C04DF91CF911F910F91FF904D
:100F4000EF90DF90CF9008959D9191938F5F75CF33
:100F500085EEB0CF8091680490916904A0916A04F5
:100F6000B0916B04892B8A2B8B2B09F4A9CF0E949B
:100F70003304009168041091690420916A0430914F
:100F80006B046C197D098E099F090617170728073E
:100F9000390708F095CFC5CF90E080E008958091A3
:100FA0009604811118C08091990490919A040B972E
:100FB00094F48091990490919A04019690939A04E4
:100FC0008093990480919304909194040196909356
:100FD00094048093930408950F931F93CF938C01EF
:100FE000C62F0E94E5066C2F6460C8010E94E506CA
:100FF0006C2F6B7FC8010E94E50683EC90E001979F
:10100000F1F7CF911F910F9108950F931F93CF93F5
:10101000DF938C01D62FC42F607F642B0E94EC07D6
:1010200080E1D89FB00111246C2BC801DF91CF91D2
:101030001F910F910C94EC0740E061E08CE595E086
:101040000E9405088BE39FE10197F1F70895CF9384
:10105000DF9300D000D01F921F92CDB7DEB798E08B
:10106000EEE1F2E0DE01119601900D929A95E1F722
:1010700090916405961708F46FEF262F30E0220F49
:10108000331F41E050E04C0F5D1F240F351FF90165
:101090006081680F606840E08CE595E028960FB6A7
:1010A000F894DEBF0FBECDBFDF91CF910C94050841
:1010B000CF93DF931092A2041092A1041092A00487
:1010C00010929F040E94200689E991E090939E046B
:1010D00080939D048AE991E090939C0480939B0403
:1010E0001092610580916605823018F098E0909327
:1010F00061058093640562E370E080E090E00E9407
:101100005804609167058CE595E00E94E50668EE5D
:1011100073E080E090E00E94580460E38CE595E085
:101120000E94EC07CBE4D6E4CE010197F1F760E32F
:101130008CE595E00E94EC072197F1F760E38CE5E0
:1011400095E00E94EC0783E592E00197F1F760E2F9
:101150008CE595E00E94EC0760916105606240E0DB
:101160008CE595E00E94050884E08093620540E0EC
:101170006CE08CE595E00E9405080E941C0882E066
:101180008093630540E066E08CE595E00E940508E9
:1011900040E062E08CE595E00E9405088BE39FE16A
:1011A0000197F1F7DF91CF91089541E00E94050882
:1011B00081E090E00895FB0101900020E9F731976C
:1011C000AF01461B570BDC01ED91FC910280F381CE
:1011D000E02D19948F929F92AF92BF92EF92FF925F
:1011E0000F931F93CF93DF93CDB7DEB7A1970FB6C1
:1011F000F894DEBF0FBECDBF7C01FA01CB0119A26E
:10120000223008F42AE08E010F5D1F4F822E912CB0
:10121000B12CA12CBF01A50194010E941513F90165
:10122000CA016A300CF5605DD8016E938D01232BE5
:10123000242B252B79F790E080E0109721F0BD0159
:10124000C7010E94DB08A1960FB6F894DEBF0FBE5F
:10125000CDBFDF91CF911F910F91FF90EF90BF9085
:10126000AF909F908F900895695CDECFCF92DF9210
:10127000EF92FF92CF93DF936C01990FEE08FF0876
:10128000F7FE23C06DE287EA94E00E947202EC014F
:1012900044275527BA014C195D096E097F092AE0D8
:1012A00087EA94E00E94EA08C80FD91F66E572E059
:1012B00087EA94E00E94DB088C0F9D1FDF91CF919D
:1012C000FF90EF90DF90CF9008952AE0B701A6013C
:1012D00087EA94E00E94EA08EC01E8CFCF93DF931D
:1012E000BC0187EA94E00E94DB08EC0166E572E04D
:1012F00087EA94E00E94DB088C0F9D1FDF91CF915D
:1013000008950C94DB08809116029091170218162C
:10131000190654F460E080E00E94270861E972E059
:101320008CE595E00E94810980911402909115024C
:101330001816190654F460E087E00E9427086CE94B
:1013400072E08CE595E00E948109809112029091F3
:1013500013021816190654F461E080E00E94270871
:1013600067EA72E08CE595E00E94810980911002A5
:10137000909111021816190654F461E087E00E945A
:10138000270862EB72E08CE595E00E94810980916C
:101390001602909117022091140230911502820FCB
:1013A000931F2091120230911302820F931F2091FC
:1013B000100230911102820F931F1816190624F1A2
:1013C00060E082E00E94270869E572E08CE595E024
:1013D0000E94810968EB7BE080E090E00E94580465
:1013E00060E080E00E94270868E672E08CE595E006
:1013F0000E94810961E080E00E94270868E772E0AE
:101400008CE595E00E94810986E30E9477030197AD
:1014100009F04FC080911602909117021816190614
:101420000CF047C00E941C0864E670E080E090E089
:101430000E94580468E872E08CE595E00E948109FA
:1014400064EF71E080E090E00E9458048091160201
:1014500090911702019790931702809316022091A2
:10146000BC053091BD05032E000C440B550B60E00C
:1014700077E883E993E00E943713CA01B9012CEBA6
:1014800032E040E050E00E9437132093B8053093DB
:10149000B9054093BA055093BB0586EB95E00E94D1
:1014A0007F0560ED77E080E090E00E9458041092A4
:1014B000960487E30E947703019709F04FC080915B
:1014C000140290911502181619060CF047C00E94DC
:1014D0001C0864E670E080E090E00E94580463E934
:1014E00072E08CE595E00E94810964EF71E080E094
:1014F00090E00E9458048091140290911502019787
:1015000090931502809314022091A2053091A305B7
:10151000032E000C440B550B60E077E883E993E061
:101520000E943713CA01B9012CEB32E040E050E0D1
:101530000E94371320939E0530939F054093A0058A
:101540005093A1058CE995E00E947F0560ED77E05E
:1015500080E090E00E9458041092960488E30E9474
:101560007703019709F04FC0809112029091130206
:10157000181619060CF047C00E941C0864E670E0BB
:1015800080E090E00E9458046EE972E08CE595E0FE
:101590000E94810964EF71E080E090E00E945804AD
:1015A00080911202909113020197909313028093FD
:1015B00012022091880530918905032E000C440BFE
:1015C000550B60E077E883E993E00E943713CA0186
:1015D000B9012CEB32E040E050E00E943713209339
:1015E000840530938505409386055093870582E8EE
:1015F00095E00E947F0560ED77E080E090E00E943A
:1016000058041092960489E30E947703019709F029
:101610004FC08091100290911102181619060CF01B
:1016200047C00E941C0864E670E080E090E00E94E1
:10163000580469EA72E08CE595E00E94810964EF44
:1016400071E080E090E00E94580480911002909137
:1016500011020197909311028093100220916E0560
:1016600030916F05032E000C440B550B60E077E8BA
:1016700083E993E00E943713CA01B9012CEB32E0F1
:1016800040E050E00E94371320936A0530936B05C9
:1016900040936C0550936D0588E695E00E947F05A8
:1016A00060ED77E080E090E00E945804109296048C
:1016B00008950F931F93CF93DF938C01EB01FC01EF
:1016C000808191810097E1F06881798161157105D0
:1016D000A9F0428153812C813D814217530770F05C
:1016E0000E948A158C819D81F801958384831D82D7
:1016F0001C82DF91CF911F910F9108950E940E14CB
:1017000088819981F801918380838A819B81938369
:1017100082838C819D8195838483198218821B82A8
:101720001A82E5CFFC0180819181009711F00C9421
:101730000E140895FC0124813581232B39F421E016
:10174000FB018081882349F020E007C080819181DE
:101750000E94811521E0892BB9F7822F08950F93FC
:101760001F93CF93DF93EC0188819981009759F003
:101770002A813B812617370730F081E0DF91CF9136
:101780001F910F9108958B016F5F7F4F0E949714F7
:10179000009759F0998388831B830A832C813D81AC
:1017A000232B59F7FC011082E8CF80E0E7CFCF93DD
:1017B000DF93EC01198218821B821A821D821C821F
:1017C00070E060E00E94AF0B2881398181110FC069
:1017D0002115310519F0C9010E940E1419821882D1
:1017E0001D821C821B821A82DF91CF9108951D8277
:1017F0001C8268E572E0C901DF91CF910C948A15D3
:10180000EF92FF920F931F93CF93DF931F921F923C
:10181000CDB7DEB78C01FC011182108213821282D7
:101820001582148270E060E00E94AF0BF801208105
:101830003181811132C02115310519F0C9010E9491
:101840000E14F80111821082158214821382128202
:101850000E94EC0197FD29C08A30910531F18983FE
:101860001A82F801E480F580FFEFEF1AFF0AB70152
:10187000C8010E94AF0B882359F3F8012081318100
:1018800084819581BE016F5F7F4F820F931F0E94FD
:101890008A15F801F582E482DBCF1582148268E5AF
:1018A00072E0C9010E948A15D3CFC8010F900F9032
:1018B000DF91CF911F910F91FF90EF90089585EDEB
:1018C0008093BC008091680490916904A0916A049F
:1018D000B0916B040796A11DB11D23E0B695A795A5
:1018E000979587952A95D1F72091BC0024FD03C0D8
:1018F00010926604089540916804509169046091C3
:101900006A0470916B04452B462B472B69F30097B3
:10191000A105B10541F025E32A95F1F700000197F3
:10192000A109B109E1CF809167040C943E061F9292
:101930000F920FB60F9211240BB60F922F933F9375
:101940004F935F936F937F938F939F93AF93BF93C7
:10195000EF93FF9387EA94E00E945002FF91EF918A
:10196000BF91AF919F918F917F916F915F914F91B7
:101970003F912F910F900BBE0F900FBE0F901F90B5
:1019800018951F920F920FB60F9211240BB60F925B
:101990002F938F939F93EF93FF93E091B704F09170
:1019A000B8048081E091BD04F091BE0482FD1DC0A9
:1019B00090818091C0048F5F8F732091C104821742
:1019C00041F0E091C004F0E0E955FB4F958F809322
:1019D000C004FF91EF919F918F912F910F900BBEBB
:1019E0000F900FBE0F901F9018958081F2CF1F921D
:1019F0000F920FB60F9211242F933F938F939F93C3
:101A0000AF93BF938091A3049091A404A091A504E7
:101A1000B091A60430918E0423E0230F2D3758F5A2
:101A20000196A11DB11D20938E048093A304909371
:101A3000A404A093A504B093A60480918F04909170
:101A40009004A0919104B09192040196A11DB11D42
:101A500080938F0490939004A0939104B093920488
:101A6000BF91AF919F918F913F912F910F900FBE9A
:101A70000F901F90189526E8230F0296A11DB11D07
:101A8000D2CF1F920F920FB60F9211240BB60F9266
:101A90002F933F934F935F936F937F938F939F9376
:101AA000AF93BF93EF93FF93E0910E02F0910F027B
:101AB0001995FF91EF91BF91AF919F918F917F9178
:101AC0006F915F914F913F912F910F900BBE0F90AF
:101AD0000FBE0F901F9018951F920F920FB60F9286
:101AE00011240BB60F922F933F934F935F936F93F5
:101AF0007F938F939F93AF93BF93EF93FF93E09167
:101B00000C02F0910D021995FF91EF91BF91AF91E9
:101B10009F918F917F916F915F914F913F912F9105
:101B20000F900BBE0F900FBE0F901F9018951F9235
:101B30000F920FB60F9211240BB60F922F933F9373
:101B40004F935F936F937F938F939F93AF93BF93C5
:101B5000EF93FF93E0910202F09103021995FF9138
:101B6000EF91BF91AF919F918F917F916F915F9115
:101B70004F913F912F910F900BBE0F900FBE0F9082
:101B80001F9018951F920F920FB60F9211240BB64B
:101B90000F922F933F934F935F936F937F938F9306
:101BA0009F93AF93BF93EF93FF93E0910002F09167
:101BB00001021995FF91EF91BF91AF919F918F9184
:101BC0007F916F915F914F913F912F910F900BBE3D
:101BD0000F900FBE0F901F9018951F920F920FB687
:101BE0000F9211240BB60F922F933F934F935F9355
:101BF0006F937F938F939F93AF93BF93EF93FF93D5
:101C0000E0910A02F0910B021995FF91EF91BF91BB
:101C1000AF919F918F917F916F915F914F913F9184
:101C20002F910F900BBE0F900FBE0F901F90189525
:101C30001F920F920FB60F9211240BB60F922F9393
:101C40003F934F935F936F937F938F939F93AF9344
:101C5000BF93EF93FF93E0910802F0910902199569
:101C6000FF91EF91BF91AF919F918F917F916F9174
:101C70005F914F913F912F910F900BBE0F900FBE30
:101C80000F901F9018951F920F920FB60F9211246C
:101C90000BB60F922F933F934F935F936F937F9366
:101CA0008F939F93AF93BF93EF93FF93E0910602BF
:101CB000F09107021995FF91EF91BF91AF919F911C
:101CC0008F917F916F915F914F913F912F910F90E5
:101CD0000BBE0F900FBE0F901F9018951F920F9282
:101CE0000FB60F9211240BB60F922F933F934F9381
:101CF0005F936F937F938F939F93AF93BF93EF9374
:101D0000FF93E0910402F09105021995FF91EF9184
:101D1000BF91AF919F918F917F916F915F914F9103
:101D20003F912F910F900BBE0F900FBE0F901F9001
:101D300018951F920F920FB60F9211240BB60F92A7
:101D40002F933F934F935F936F937F938F939F93C3
:101D5000AF93BF93EF93FF938091B900887F803654
:101D600009F44DC008F040C0883209F4A9C028F534
:101D7000803109F49DC0C8F4882309F4FBC0883081
:101D800009F496C0FF91EF91BF91AF919F918F9110
:101D90007F916F915F914F913F912F910F900BBE6B
:101DA0000F900FBE0F901F901895883109F488C0CE
:101DB000803241F78093640414C0803409F49DC0DC
:101DC00040F48033B9F38833E9F68093640485ECFA
:101DD000B0C0803509F485C0883509F496C08834D0
:101DE00089F60E945F0CCECF883909F48CC038F593
:101DF000883729F050F4883611F0803719F683E0DF
:101E00008093660410923F0457C0883809F47BC061
:101E1000803919F0803809F0B5CF80913F048032C5
:101E200008F071C0E0913F0481E08E0F80933F0481
:101E30008091BB00F0E0E15EFB4F80833DC0803BC2
:101E400039F0E0F4803A09F479C0883A09F09ACF81
:101E500084E08093660410921E0410921D04E091A9
:101E60009D04F0919E04199580911D0481110FC06D
:101E700081E080931D041092FD0309C0803C09F4A9
:101E8000A6CF883C09F4A3CF883B09F07BCFE09133
:101E90001E0481E08E0F80931E04F0E0E350FC4F9F
:101EA00080818093BB0090911E0480911D0429C005
:101EB000809141048093BB0085EC8093BC0062CF8D
:101EC0009091630480916204981758F5E09163043F
:101ED00081E08E0F80936304F0E0EE5BFB4F808126
:101EE000E9CFE091630481E08E0F809363048091D9
:101EF000BB00F0E0EE5BFB4F808390916304809128
:101F000062049817C8F285E8D8CFE091630481E0B5
:101F10008E0F809363048091BB00F0E0EE5BFB4F7B
:101F200080838091650481115CCF81E080934004BF
:101F300084EA8093BC001092660424CF85EC8093E1
:101F4000BC001092660480913F04803230F4E0912E
:101F50003F04F0E0E15EFB4F108260913F0470E0CF
:101F6000E0919B04F0919C048FE194E0199510920C
:101F70003F0408CF1092640434CF0F931F93E7EA15
:101F8000F4E01382128288EE93E0A0E0B0E0848354
:101F90009583A683B7832AE232E03183208325EC40
:101FA00030E03587248724EC30E03787268720EC23
:101FB00030E0318B208B21EC30E0338B228B22EC14
:101FC00030E0358B248B26EC30E0378B268B118E5E
:101FD000128E138E148EE4E4F5E013821282848351
:101FE0009583A683B7838CE392E09183808309E194
:101FF00010E028E130E047E150E066E170E086EB78
:1020000095E00E94FF030DE110E02CE130E04BE190
:1020100050E06AE170E08CE995E00E94FF0301E284
:1020200010E020E230E04FE150E06EE170E082E845
:1020300095E00E94FF0305E210E024E230E043E275
:1020400050E062E270E088E695E00E94FF03ECE574
:10205000F5E0138212828EE492E0918380838FE315
:10206000848380E1818782E08287138686E595E01C
:102070000E94D70B80E595E01F910F910C94D70B30
:10208000CF93DF9300D000D0CDB7DEB7789484B57E
:10209000826084BD84B5816084BD85B5826085BD64
:1020A00085B5816085BD80916E00816080936E00F2
:1020B00010928100809181008260809381008091E4
:1020C0008100816080938100809180008160809395
:1020D00080008091B10084608093B1008091B00055
:1020E00081608093B0008091910082608093910024
:1020F0008091910081608093910080919000816037
:10210000809390008091A10082608093A1008091D3
:10211000A10081608093A1008091A00081608093E4
:10212000A000809121018260809321018091210192
:102130008160809321018091200181608093200142
:1021400080917A00846080937A0080917A00826026
:1021500080937A0080917A00816080937A008091E8
:102160007A00806880937A001092C100E091B704F1
:10217000F091B80482E08083E091B304F091B4045C
:102180001082E091B504F091B6048FEC8083109238
:10219000BF04E091BB04F091BC0486E08083E09131
:1021A000B904F091BA04808180618083E091B90420
:1021B000F091BA04808188608083E091B904F09145
:1021C000BA04808180688083E091B904F091BA04F8
:1021D00080818F7D808360ED77E080E090E00E94D9
:1021E000580460E082E00E94CE0360E086E30E9433
:1021F000CE0360E087E30E94CE0360E088E30E94A4
:10220000CE0360E089E30E94CE038FEC97E09093C9
:1022100001028093000280916A008C7F826080932B
:102220006A00EC9A84EB92E00E946E0983EC92E0E3
:102230000E946E090E9458080E94580888E0809306
:10224000670560E08CE595E00E94E50660E085E0CA
:102250000E94270863ED72E08CE595E00E948109F9
:1022600061E083E00E9427086BED72E08CE595E069
:102270000E94810968EE73E080E090E00E945804BB
:102280000E941C0860E085E00E94270866EE72E06C
:102290008CE595E00E94810961E083E00E942708B7
:1022A0006CEE72E08CE595E00E94810968EE73E0C7
:1022B00080E090E00E9458040E941C0807E010E0B3
:1022C000BB24B39487EA94E00E943A0218161906D8
:1022D0000CF0C3C080919504811131C0CE010196EC
:1022E0000E94000CBE016F5F7F4F86E595E00E9463
:1022F000590BCE0101960E94920B67EF72E086E5C2
:1023000095E00E949A0B882311F1B09295048CEF0E
:1023100092E00E946E0981E093E00E946E098BE1D9
:1023200093E00E946E0983E293E00E946E0982E3CB
:1023300093E00E946E0985E493E00E946E0967EFC6
:1023400072E086E595E00E949A0B81110AC08091A7
:102350009504882331F066E573E087EA94E00E94F3
:10236000810980919504882309F477C0CE010196F4
:102370000E94000CBE016F5F7F4F80E595E00E94D8
:10238000590BCE0101960E94920B63E673E080E543
:1023900095E00E949A0B882351F083E293E00E941B
:1023A0006E0980919304909194040E94360965E629
:1023B00073E080E595E00E949A0B882361F182E347
:1023C00093E00E946E0987E693E00E946E09809177
:1023D0001602909117020E94360983E793E00E944B
:1023E0006E0980911402909115020E9436098FE7C0
:1023F00093E00E946E0980911202909113020E9454
:1024000036098BE893E00E946E098091100290914A
:1024100011020E94360967E973E080E595E00E94A9
:102420009A0B8823D1F089E993E00E946E091093FA
:1024300017020093160210931502009314021093D2
:10244000130200931202109311020093100268EC21
:1024500070E080E090E00E9458048091990490918F
:102460009A040A97A4F08091970490919804019699
:1024700090939804809397048091990490919A0482
:102480000A9790939A0480939904B092960480914D
:10249000990490919A04892BA1F4809199049091C8
:1024A0009A040A9774F48091960481110AC060E03E
:1024B00081E00E9427086CEB73E08CE595E00E94B8
:1024C00081098091990490919A04181619060CF0CC
:1024D00075C08091990490919A040A970CF06EC08F
:1024E0008091960481116EC00E941C08809199040D
:1024F00090919A04892BA1F460E080E00E94270863
:102500006CEC73E08CE595E00E94810961E089E064
:102510000E94270864ED73E08CE595E00E94810934
:102520008091990490919A0418161906ECF58091FF
:10253000990490919A040A97BCF560E080E00E94AB
:1025400027086CEC73E08CE595E00E94810960E05F
:1025500088E00E942708C0909904D0909A040D2C1E
:10256000000CEE08FF082AE0B701A601F7FE0EC036
:1025700041E06DE28CE595E00E940508442755276F
:10258000BA014C195D096E097F092AE08CE595E0D6
:102590000E94EA0860E08BE00E94270868ED73E083
:1025A0008CE595E00E9481098091990490919A04AC
:1025B0000A9724F0B09296040E94830980919604B1
:1025C000882361F00E94830910929A041092990462
:1025D00068E572E080E090E00E94580464EF71E0EA
:1025E00080E090E00E9458040E941C080E94DF02D4
:1025F00069CE80E595E00E94920B86E595E00C940B
:10260000920B97FB072E16F4009407D077FD09D0A4
:102610000E945E1307FC05D03EF4909581959F4F74
:102620000895709561957F4F0895A1E21A2EAA1B17
:10263000BB1BFD010DC0AA1FBB1FEE1FFF1FA21772
:10264000B307E407F50720F0A21BB30BE40BF50B6F
:10265000661F771F881F991F1A9469F760957095F8
:10266000809590959B01AC01BD01CF010895052E89
:1026700097FB1EF400940E944E1357FD07D00E9452
:10268000151307FC03D04EF40C944E13509540954F
:10269000309521953F4F4F4F5F4F0895909580950E
:1026A000709561957F4F8F4F9F4F0895EE0FFF1FDD
:1026B000881F8BBF0790F691E02D1994AA1BBB1BB6
:1026C00051E107C0AA1FBB1FA617B70710F0A61B32
:1026D000B70B881F991F5A95A9F780959095BC0153
:1026E000CD0108950F931F93CF93DF93823091050F
:1026F00010F482E090E0E091D205F091D30530E053
:1027000020E0B0E0A0E0309799F42115310509F4FC
:102710004AC0281B390B24303105D8F58A819B81AA
:102720006115710589F1FB0193838283FE0111C05C
:10273000408151810281138148175907E0F0481701
:10274000590799F4109761F012960C93129713960B
:102750001C933296CF01DF91CF911F910F91089575
:102760000093D2051093D305F4CF2115310551F014
:102770004217530738F0A901DB019A01BD01DF01BF
:10278000F801C1CFEF01F9CF9093D3058093D20523
:10279000CDCFFE01E20FF31F8193919322503109B7
:1027A00039832883D7CF2091D0053091D105232BB1
:1027B00041F420911A0230911B023093D1052093ED
:1027C000D00520911802309119022115310541F4EC
:1027D0002DB73EB740911C0250911D02241B350BB2
:1027E000E091D005F091D105E217F307A0F42E1B7C
:1027F0003F0B2817390778F0AC014E5F5F4F241765
:10280000350748F04E0F5F1F5093D1054093D00518
:10281000819391939FCFF0E0E0E09CCFCF93DF9343
:102820000097E9F0FC01329713821282A091D20541
:10283000B091D305ED0130E020E01097A1F42081A4
:102840003181820F931F2091D0053091D105281737
:10285000390709F061C0F093D105E093D005DF910D
:10286000CF910895EA01CE17DF07E8F54A815B8131
:102870009E0141155105B1F7E901FB83EA834991B6
:102880005991C40FD51FEC17FD0761F48081918128
:102890000296840F951FE901998388838281938131
:1028A0009B838A83F0E0E0E012968D919C911397D0
:1028B0000097B9F52D913C911197CD010296820FA9
:1028C000931F2091D0053091D1052817390739F68B
:1028D000309751F51092D3051092D205B093D105DF
:1028E000A093D005BCCFD383C28340815181840F94
:1028F000951FC817D90761F44E5F5F4F8881998192
:10290000480F591F518340838A819B81938382831F
:102910002115310509F0B0CFF093D305E093D2052E
:102920009ECFFD01DC01C0CF13821282D7CF4F9220
:102930005F926F927F928F929F92AF92BF92CF924F
:10294000DF92EF92FF920F931F93CF93DF938C014F
:10295000009799F4CB01DF91CF911F910F91FF90D8
:10296000EF90DF90CF90BF90AF909F908F907F902F
:102970006F905F904F900C947213FC01E60FF71F5D
:102980009C0122503109E217F30708F4AEC0D901C7
:10299000CD91DC911197C617D70720F1C530D1052D
:1029A00078F0CE0104978617970750F0C61BD70B17
:1029B0002297C193D1936D937C93CF010E940E1403
:1029C000C801DF91CF911F910F91FF90EF90DF90A1
:1029D000CF90BF90AF909F908F907F906F905F90BF
:1029E0004F9008955B01AC1ABD0A4C018C0E9D1EE0
:1029F000A091D205B091D305512C412CF12CE12CA2
:102A0000109731F58091D0059091D10588159905E1
:102A100009F05CC04616570608F058C080911802AD
:102A200090911902009741F48DB79EB740911C0216
:102A300050911D02841B950BE817F90708F055C04B
:102A4000F093D105E093D005F90171836083B8CF8D
:102A50008D919C91119712966C90129713967C9081
:102A60001397A815B90559F56C0142E0C40ED11CA5
:102A7000CA14DB0420F1AC014A195B09DA01129691
:102A8000159780F06282738251834083D9016D93E0
:102A90007C93E114F10471F0D7011396FC93EE934B
:102AA00012978ECF22968C0F9D1FF9019183808300
:102AB000F301EFCFF093D305E093D20581CF481611
:102AC000590608F42C017D01D3019ACFCB010E9455
:102AD00072137C01009749F0AE01B8010E9478158D
:102AE000C8010E940E1487016BCF10E000E068CF90
:102AF000FB01DC0102C001900D9241505040D8F71B
:102B00000895FB01DC018D91019080190110D9F32A
:102B1000990B0895FB01DC0101900D920020E1F773
:102B2000089511E0C5E6D1E000E006C0802FFE0167
:102B30000E9456132196011DC636D10780E0080772
:102B4000A9F7F894FFCF8A048A048A048A048A04C5
:102B50008A048A048A0401000100010001000000C7
:102B6000D405800000004000140054000000000064
:102B700072029C01C901BF023A02D8012C02000076
:102B80000000B6068906CC075F0682066F0660065F
:102B900000000000D5089C01CC079B010D0A0042F3
:102BA00072616B2070726F64756B746F77004F6227
:102BB000736C756761206B6C69656E746100746518
:102BC0006C203531312D3037392D38333400577979
:102BD0006272616E6F3A20410057796272616E6F66
:102BE0003A20420057796272616E6F3A2043005773
:102BF000796272616E6F3A20440054727962207378
:102C000065727769736F7779005770726F77616457
:102C10007A206861736C6F3A004D61737A796E61E6
:102C20000056656E64696E676F77610050696F74F6
:102C3000720047616C776961637A656B003132338A
:102C400034002A2A2A2A004861736C6F2077706941
:102C500073616E6520706F707261776E6965210AAD
:102C6000004F70636A653A0A00312E5374616E201A
:102C70006B6F6E74613A0A00322E5374616E20706D
:102C8000726F64756B746F773A0A00332E557A75DC
:102C900070656C6E69656E69653A0A00426C6564C0
:102CA0006E65206861736C6F003100320050726F86
:102CB00064756B7420413A0A0050726F64756B74CE
:102CC00020423A0A0050726F64756B7420433A0ACE
:102CD0000050726F64756B7420443A0A00330053DD
:102CE00074616E2070726F64756B746F77207A6F89
:102CF0007374616C20757A7570656C6E696F6E792E
:102D00000A0057727A756320352C20322C20317AD4
:102D10006C006B72656479743A00302E30307A6CD6
:022D20000000B1
:10E000000D9489F10D94B2F10D94B2F10D94B2F129
:10E010000D94B2F10D94B2F10D94B2F10D94B2F1F0
:10E020000D94B2F10D94B2F10D94B2F10D94B2F1E0
:10E030000D94B2F10D94B2F10D94B2F10D94B2F1D0
:10E040000D94B2F10D94B2F10D94B2F10D94B2F1C0
:10E050000D94B2F10D94B2F10D94B2F10D94B2F1B0
:10E060000D94B2F10D94B2F10D94B2F10D94B2F1A0
:10E070000D94B2F10D94B2F10D94B2F10D94B2F190
:10E080000D94B2F10D94B2F10D94B2F10D94B2F180
:10E090000D94B2F10D94B2F10D94B2F10D94B2F170
:10E0A0000D94B2F10D94B2F10D94B2F10D94B2F160
:10E0B0000D94B2F10D94B2F10D94B2F10D94B2F150
:10E0C0000D94B2F10D94B2F10D94B2F10D94B2F140
:10E0D0000D94B2F10D94B2F10D94B2F10D94B2F130
:10E0E0000D94B2F141546D656761323536300041AF
:10E0F000726475696E6F206578706C6F72657220DE
:10E1000073746B3530305632206279204D4C530099
:10E11000426F6F746C6F616465723E004875683F52
:10E1200000436F6D70696C6564206F6E203D200048
:10E130004350552054797065202020203D20005FF9
:10E140005F4156525F415243485F5F3D2000415658
:10E1500052204C696243205665723D20004743437C
:10E160002056657273696F6E203D20004350552024
:10E1700049442020202020203D20004C6F7720663D
:10E18000757365202020203D20004869676820665F
:10E190007573652020203D200045787420667573D6
:10E1A00065202020203D20004C6F636B2066757336
:10E1B000652020203D20004D617220203720323024
:10E1C000313300312E362E3800342E332E350056A2
:10E1D00023202020414444522020206F7020636F70
:10E1E00064652020202020696E73747275637469E1
:10E1F0006F6E2061646472202020496E74657272B3
:10E20000757074006E6F20766563746F7200726A49
:10E210006D702020006A6D70200057686174207056
:10E220006F72743A00506F7274206E6F7420737541
:10E2300070706F72746564004D7573742062652030
:10E2400061206C6574746572002000577269747483
:10E25000696E672045450052656164696E672045B7
:10E26000450045452065727220636E743D00504F35
:10E27000525400303D5A65726F2061646472003FF1
:10E280003D43505520737461747300403D454550C3
:10E29000524F4D207465737400423D426C696E6B41
:10E2A000204C454400453D44756D70204545505215
:10E2B0004F4D00463D44756D7020464C415348001B
:10E2C000483D48656C70004C3D4C69737420492F83
:10E2D0004F20506F72747300513D51756974005234
:10E2E0003D44756D702052414D00563D73686F7707
:10E2F00020696E7465727275707420566563746FF0
:10E30000727300593D506F727420626C696E6B00BD
:10E310002A0011241FBECFEFD1E2DEBFCDBF01E046
:10E320000CBF12E0A0E0B2E0EEE1FDEF03E00BBFB6
:10E3300002C007900D92A030B107D9F712E0A0E01B
:10E34000B2E001C01D92AE30B107E1F70F9460F367
:10E350000D948DFE01E20EBF0FEF0DBF11241FBE05
:10E360000D9460F30D9400F020E030E040ED57E0B4
:10E3700005C0FA013197F1F72F5F3F4F2817390792
:10E38000C0F308959C01260F311DC901A0E0B0E043
:10E390002F5F3F4FABBFFC018791882361F08093D3
:10E3A000C6008091C00086FFFCCF8091C0008064D1
:10E3B0008093C000EACF08958DE08093C6008091DD
:10E3C000C00086FFFCCF8091C00080648093C000B5
:10E3D0008AE08093C6008091C00086FFFCCF8091C8
:10E3E000C00080648093C00008950F94C2F10F9420
:10E3F000DCF10895FC019081992359F09093C600B7
:10E400008091C00086FFFCCF8091C0008064809323
:10E41000C0003196992379F70895282F982F929567
:10E420009F70892F805D8A3308F0895F8093C600D2
:10E430008091C00086FFFCCF8091C00080648093F3
:10E44000C000822F8F70982F905D9A3308F0995FEB
:10E450009093C6008091C00086FFFCCF8091C000E1
:10E4600080648093C00008959C01FB01853691056E
:10E470001CF46330710594F0C90164E670E00F94F8
:10E480002EFE605D7F4F6093C6008091C00086FFC6
:10E49000FCCF8091C00080648093C0002B30310598
:10E4A00014F43297B4F0C90164E670E00F942EFEC4
:10E4B0006AE070E00F942EFE605D7F4F6093C600AF
:10E4C0008091C00086FFFCCF8091C0008064809363
:10E4D000C000C9016AE070E00F942EFEC0968093E0
:10E4E000C6008091C00086FFFCCF8091C000806490
:10E4F0008093C00008951F93182F8EE692EE60E07F
:10E500000F94C2F11093C6008091C00086FFFCCF2B
:10E510008091C00080648093C0000F94DCF11F9153
:10E5200008952F923F924F925F926F927F928F92B7
:10E530009F92AF92BF92CF92DF92EF92FF920F9392
:10E540001F93DF93CF93CDB7DEB762970FB6F894E2
:10E55000DEBF0FBECDBF382E622ECA01DB015C01CB
:10E560006D01772420E2222E2E010894411C511CBB
:10E570008BC081E0A81680E0B80681E0C80680E084
:10E58000D80628F0C601AA27BB270F940DF2BB2797
:10E59000AD2D9C2D8B2D0F940DF28A2D0F940DF225
:10E5A0002092C6008091C00086FFFCCF8091C00001
:10E5B00080648093C0009DE29093C6008091C0006B
:10E5C00086FFFCCF8091C00080648093C0002092C1
:10E5D000C6008091C00086FFFCCF8091C00080649F
:10E5E0008093C00019828601750188249924A1E0D6
:10E5F0003A1651F03A1620F0B2E03B1661F409C029
:10E600000BBFF701779007C0C7010F9477FE782EF4
:10E6100002C0F7017080872D0F940DF22092C60082
:10E620008091C00086FFFCCF8091C0008064809301
:10E63000C000872D8052F401EF70F0708F3520F408
:10E64000E40DF51D708204C0E40DF51D8EE280839B
:10E650000894E11CF11C011D111D0894811C911CE2
:10E6600090E18916910409F0C2CF80E190E0A0E02A
:10E67000B0E0A80EB91ECA1EDB1E198AC2010F9493
:10E68000FAF10F94DCF16A94662009F072CF629679
:10E690000FB6F894DEBF0FBECDBFCF91DF911F91B3
:10E6A0000F91FF90EF90DF90CF90BF90AF909F9031
:10E6B0008F907F906F905F904F903F902F90089534
:10E6C0002F923F924F925F926F927F928F929F9282
:10E6D000AF92BF92CF92DF92EF92FF920F931F9370
:10E6E000DF93CF93CDB7DEB7CD53D1400FB6F894BB
:10E6F000DEBF0FBECDBF01E20EBF0FEF0DBF94B75F
:10E70000F894A89514BE80916000886180936000A1
:10E7100010926000789493FF05C0E0910002F091A0
:10E7200001021995279A2F9A8091C00082608093E8
:10E73000C00080E18093C40088E18093C1000000A4
:10E74000EE24FF24870144E0A42EB12CCC24DD2448
:10E7500024C0C5010197F1F70894E11CF11C011DCB
:10E76000111D21E2E2162EE4F20620E0020720E06D
:10E77000120718F031E0C32ED12CC801B70127ECE5
:10E780003BE140E050E00F9441FE611571058105C9
:10E79000910519F485B1805885B98091C00087FD35
:10E7A00003C0C114D104A9F2A6014F5F5F4FC25E3E
:10E7B000DE4F59834883CE51D140C25EDE4F8881FF
:10E7C0009981CE51D140019711F00D9410FEC05D9A
:10E7D000DE4F19821882C053D14060E0C15DDE4F28
:10E7E0001882CF52D14088249924C35DDE4F19820C
:10E7F0001882CD52D140C05EDE4F188219821A8233
:10E800001B82C052D140CE5CDE4F188219821A8220
:10E810001B82C253D140EE24FF2487010BBFF701B6
:10E8200007911691C45CDE4F19830883CC53D14005
:10E830000D940BFEC25EDE4F28813981CE51D1404E
:10E840002130310509F52091C600C25EDE4F1982E4
:10E850001882CE51D14022C02F5F3F4F4F4F5F4FA4
:10E86000213082E138078AE7480780E0580780F0C6
:10E87000C45CDE4FE881F981CC53D140EF5FFF4F9C
:10E8800019F0EE27FF27099420E030E040E050E047
:10E890008091C00087FFE0CF2091C600C35DDE4FAE
:10E8A00048815981CD52D1404F5F5F4FC35DDE4FEC
:10E8B00059834883CD52D140213209F063C64A3092
:10E8C000510508F05FC60894811C911C53E0851621
:10E8D000910409F059C600E010E018C081E280936D
:10E8E000C6008091C00086FFFCCF8091C00080648C
:10E8F0008093C0002F5F3F4F2931310579F70F9486
:10E90000DCF10F5F1F4F0530110519F020E030E0FA
:10E91000E5CF10920A0210920B0210920C02109294
:10E920000D02109206021092070210920802109235
:10E930000902109202021092030210920402109235
:10E9400005028FEE90EE60E00F94F5F180E191EE1C
:10E9500060E00F94C2F18091C00087FFFCCF9091DE
:10E96000C600903608F09F759032B8F09093C600BC
:10E970008091C00086FFFCCF8091C00080648093AE
:10E98000C000A0E2A093C6008091C00086FFFCCF2B
:10E990008091C00080648093C000983409F4D7C18E
:10E9A0009934B8F4923409F459C1933458F490333B
:10E9B00019F1903308F4E3C59F33A1F1903409F0C5
:10E9C000DEC5BDC0953409F470C1963409F0D7C5D1
:10E9D00098C1923509F42BC2933538F49C3409F46C
:10E9E000F5C1913509F0CBC518C2963509F445C279
:10E9F000993509F0C4C567C483E792EE62E00F94CD
:10EA0000F5F110920602109207021092080210927D
:10EA1000090210920A0210920B0210920C0210923C
:10EA20000D0213C18FE792EE62E00F94F5F18FEEC5
:10EA300090EE60E00F94F5F181E291EE60E00F94CA
:10EA4000C2F187EB91EE60E00F94F5F180E391EE77
:10EA500060E00F94C2F184EE90EE60E00F94F5F167
:10EA60008FE391EE60E00F94C2F186E090E061E008
:10EA700070E00F9434F20F94DCF18DE591EE60E0DC
:10EA80000F94C2F189EC91EE60E00F94F5F18EE401
:10EA900091EE60E00F94C2F183EC91EE60E00F9490
:10EAA000F5F18CE691EE60E00F94C2F18EE10F94E7
:10EAB0000DF288E90F940DF281E00F940DF20F949E
:10EAC000DCF18BE791EE60E00F94C2F119E0E0E039
:10EAD000F0E010935700E4918E2F0F940DF20F94F5
:10EAE000DCF18AE891EE60E00F94C2F1E3E0F0E03F
:10EAF00010935700E4918E2F0F940DF20F94DCF1D8
:10EB000089E991EE60E00F94C2F1E2E0F0E0109349
:10EB10005700E4918E2F0F940DF20F94DCF188EAE8
:10EB200091EE60E00F94C2F1E1E0F0E01093570045
:10EB30001491812F0F940DF20F94DCF107CF8BE825
:10EB400092EE62E00F94F5F18BE492EE60E00F94A8
:10EB5000F5F10F94DCF100E010E019C0C8016F2D51
:10EB60000F947FFEFF2031F489E492EE60E00F9471
:10EB7000C2F10BC0F092C6008091C00086FFFCCFAE
:10EB80008091C00080648093C0000F5F1F4FC80158
:10EB900081519F41A0E0B0E0ABBFFC01F790BAE229
:10EBA000FB1621F0E2E000301E07C1F60F94DCF105
:10EBB0000F94DCF187E592EE60E00F94F5F10F948D
:10EBC000DCF1CC24DD2400E010E01EC0C8010F946D
:10EBD00077FEF82E882331F489E492EE60E00F94FA
:10EBE000C2F10BC08093C6008091C00086FFFCCFAD
:10EBF0008091C00080648093C000FE1419F00894D6
:10EC0000C11CD11C0F5F1F4FC80181519F41A0E063
:10EC1000B0E0ABBFFC01E790FAE2EF1621F022E092
:10EC20000030120799F60F94DCF10F94DCF182E6C4
:10EC300092EE60E00F94C2F1C60161E070E00F94C3
:10EC400034F20F94DCF10F94DCF110920202109276
:10EC50000302109204021092050278CE89E992EE26
:10EC600062E00F94F5F1279A2F9A16C02F9880E052
:10EC700090E0E0EDF7E03197F1F7019684369105E9
:10EC8000C1F72F9A80E090E0E0EDF7E03197F1F7DF
:10EC9000019684369105C1F78091C00087FFE6CFC9
:10ECA0008091C00087FFFCCF64C485EA92EE62E0E9
:10ECB0000F94F5F140910202509103026091040219
:10ECC0007091050281E020E10F9491F2809102029F
:10ECD00090910302A0910402B091050280509F4FD1
:10ECE000AF4FBF4F8093020290930302A0930402A0
:10ECF000B093050280509041A040B04008F426CE69
:10ED0000A4CF83EB92EE62E00F94F5F140910602FE
:10ED100050910702609108027091090280E020E1A1
:10ED20000F9491F28091060290910702A09108023F
:10ED3000B091090280509F4FAF4FBF4F80930602A2
:10ED400090930702A0930802B0930902FFCD80ECD4
:10ED500092EE62E00F94F5F183E792EE60E00F949B
:10ED6000F5F18FE792EE60E00F94F5F18BE892EE0B
:10ED700060E00F94F5F189E992EE60E00F94F5F10F
:10ED800085EA92EE60E00F94F5F183EB92EE60E09D
:10ED90000F94F5F180EC92EE60E00F94F5F187ECC2
:10EDA00092EE60E00F94F5F188ED92EE60E00F9442
:10EDB000F5F18FED92EE60E00F94F5F18AEE92EEB0
:10EDC00060E00F94F5F183E093EEBDCD87EC92EE19
:10EDD00062E00F94F5F181E40F947BF282E40F94EA
:10EDE0007BF283E40F947BF284E40F947BF285E45E
:10EDF0000F947BF286E40F947BF287E40F947BF20E
:10EE000088E40F947BF28AE40F947BF28BE40F94F6
:10EE10007BF28CE40F947BF299CD88ED92EE62E068
:10EE20000F94F5F1772473948824992409C48FED05
:10EE300092EE62E00F94F5F140910A0250910B02BC
:10EE400060910C0270910D0282E020E10F9491F22A
:10EE500080910A0290910B02A0910C02B0910D02D8
:10EE600080509F4FAF4FBF4F80930A0290930B0289
:10EE7000A0930C02B0930D0269CD8AEE92EE62E08F
:10EE80000F94F5F184EE90EE60E00F94F5F18FECC5
:10EE900091EE60E00F94F5F1662477244301CC5D98
:10EEA000DE4F19821882C452D140D401C301B695F5
:10EEB000A79597958795CA5DDE4F88839983AA8326
:10EEC000BB83C652D140CC5DDE4FA881B981C4520C
:10EED000D1401196CC5DDE4FB983A883C452D14096
:10EEE000CD0162E070E00F9434F2B0E2B093C6005E
:10EEF0008091C00086FFFCCF8091C0008064809329
:10EF0000C000EDE2E093C6008091C00086FFFCCF18
:10EF10008091C00080648093C000F0E2F093C6004E
:10EF20008091C00086FFFCCF8091C00080648093F8
:10EF3000C000CA5DDE4FE880F9800A811B81C6529D
:10EF4000D140BB27A12F902F8F2D0F940DF2CA5DBA
:10EF5000DE4F8881C652D1400F940DF2B0E2FB2EF5
:10EF6000F092C6008091C00086FFFCCF8091C00067
:10EF700080648093C0000DE30093C6008091C000C0
:10EF800086FFFCCF8091C00080648093C00010E2B7
:10EF90001093C6008091C00086FFFCCF8091C00016
:10EFA00080648093C0008BBEF3012791C65DDE4F65
:10EFB0002883CA52D140A22EBB24CC24DD2408943D
:10EFC000611C711C811C911C8BBEF3018791282E42
:10EFD0003324442455240894611C711C811C911C09
:10EFE0008BBEF3013791C55DDE4F3883CB52D140E4
:10EFF0000894611C711C811C911C8BBEF30147910C
:10F00000C45DDE4F4883CC52D140ADEFEA2EAFEF66
:10F01000FA2EAFEF0A2FAFEF1A2F6E0C7F1C801E57
:10F02000911E142D032DF22CEE24EA0CFB1C0C1D5A
:10F030001D1D0F940DF220E22093C6008091C000A8
:10F0400086FFFCCF8091C00080648093C000C65DC5
:10F05000DE4F8881CA52D1400F940DF230E23093D6
:10F06000C6008091C00086FFFCCF8091C000806404
:10F070008093C000C45DDE4F8881CC52D1400F9494
:10F080000DF240E24093C6008091C00086FFFCCFA5
:10F090008091C00080648093C000C55DDE4F888190
:10F0A000CB52D1400F940DF250E25093C6008091A4
:10F0B000C00086FFFCCF8091C00080648093C000B8
:10F0C0008FEFE8168FEFF80680E0080780E018075A
:10F0D00031F484E092EE60E00F94C2F1DFC0D80119
:10F0E000C7018070907CA070B0708050904CA040A0
:10F0F000B040D1F52FEF3FE340E050E0E222F322B1
:10F1000004231523CA5DDE4FA880B980CA80DB8046
:10F11000C652D140AE0CBF1CC01ED11EAA0CBB1CD7
:10F12000CC1CDD1C8EE092EE60E00F94C2F1BB2798
:10F13000A12F902F8F2D0F940DF28E2D0F940DF285
:10F1400030E23093C6008091C00086FFFCCF8091F2
:10F15000C00080648093C0004EE34093C60080915D
:10F16000C00086FFFCCF87C08EE09EEFA0E0B0E03D
:10F17000E822F9220A231B239CE0E91694E9F90608
:10F1800090E0090790E0190709F088C0C45DDE4FE0
:10F19000A881CC52D140EA2EFF2400E010E0102FCD
:10F1A0000F2DFE2CEE24C55DDE4FB881CB52D14031
:10F1B000EB0EF11C011D111DD601C501817090706F
:10F1C000A070B070DC0199278827E80EF91E0A1F8D
:10F1D0001B1F20EF30E040E050E0A222B322C42207
:10F1E000D52241E1AA0CBB1CCC1CDD1C4A95D1F7F1
:10F1F000EA0CFB1C0C1D1D1D81E090E0A0E0B0E0BE
:10F20000282239224A225B2235E1220C331C441C7D
:10F21000551C3A95D1F7E20CF31C041D151D57013E
:10F220006801AA0CBB1CCC1CDD1C85E192EE60E0E1
:10F230000F94C2F1C801AA27BB270F940DF2BB2778
:10F24000A12F902F8F2D0F940DF28E2D0F940DF274
:10F2500090E29093C6008091C00086FFFCCF809121
:10F26000C00080648093C000AEE3A093C60080918C
:10F27000C00086FFFCCF8091C00080648093C000F6
:10F28000C601AA27BB270F940DF2BB27AD2D9C2DDD
:10F290008B2D0F940DF28A2D0F940DF20F94DCF14B
:10F2A000CC5DDE4FE881F981C452D140F99709F471
:10F2B0004DCBF4E0EF2EF12C012D112D6E0C7F1CA7
:10F2C000801E911EF2CD83E093EE62E00F94F5F183
:10F2D0008AE192EE60E00F94C2F18091C00087FF56
:10F2E000FCCF1091C6001F751093C6008091C0001E
:10F2F00086FFFCCF8091C00080648093C0000F9493
:10F30000DCF1812F81548A3108F036C1163409F4BA
:10F3100095C0173490F4133409F44EC0143430F40B
:10F320001134F1F0123409F01DC130C0143409F465
:10F3300059C0153409F016C16BC01A3409F4C4C0A1
:10F340001B3438F4173409F48FC0183409F00AC19B
:10F35000A1C01B3409F4D2C01C3409F003C1E8C0B9
:10F360008FEF81B90DC082B1809582B980E090E0C5
:10F37000E0EDF7E03197F1F70196883C9105C1F790
:10F380008091C00087FFEFCF12B8EFC08FEF84B934
:10F390000DC085B1809585B980E090E0E0EDF7E0A3
:10F3A0003197F1F70196883C9105C1F78091C00033
:10F3B00087FFEFCF15B8D9C08FEF87B90DC088B1DF
:10F3C000809588B980E090E0E0EDF7E03197F1F7C3
:10F3D0000196883C9105C1F78091C00087FFEFCF6F
:10F3E00018B8C3C08FEF8AB90DC08BB180958BB9A7
:10F3F00080E090E0E0EDF7E03197F1F70196883C8E
:10F400009105C1F78091C00087FFEFCF1BB8ADC059
:10F410008FEF8DB90DC08EB180958EB980E090E0F0
:10F42000E0EDF7E03197F1F70196883C9105C1F7DF
:10F430008091C00087FFEFCF1EB897C08FEF80BBD1
:10F440000DC081B3809581BB80E090E0E0EDF7E0F6
:10F450003197F1F70196883C9105C1F78091C00082
:10F4600087FFEFCF11BA81C08FEF83BB0DC084B38C
:10F47000809584BB80E090E0E0EDF7E03197F1F714
:10F480000196883C9105C1F78091C00087FFEFCFBE
:10F4900014BA6BC08FEF809301010FC080910201FD
:10F4A00080958093020180E090E0E0EDF7E03197F5
:10F4B000F1F70196883C9105C1F78091C00087FF64
:10F4C000EDCF1092020151C08FEF809304010FC065
:10F4D0008091050180958093050180E090E0E0ED4A
:10F4E000F7E03197F1F70196883C9105C1F78091DB
:10F4F000C00087FFEDCF1092050137C08FEF8093DA
:10F5000007010FC08091080180958093080180E079
:10F5100090E0E0EDF7E03197F1F70196883C910536
:10F52000C1F78091C00087FFEDCF109208011DC088
:10F530008FEF80930A010FC080910B01809580931B
:10F540000B0180E090E0E0EDF7E03197F1F70196F4
:10F55000883C9105C1F78091C00087FFEDCF1092E4
:10F560000B0103C085E292EEEEC98091C00087FFD7
:10F57000FCCF8091C600EAC988E392EEE4C98CE131
:10F5800091EEE1C988249924933011F1943028F444
:10F59000913089F09230B8F408C0953061F195301F
:10F5A000F0F0963009F048C043C02B3109F042C951
:10F5B00091E06BE13FC96227C15DDE4F2883CF52E6
:10F5C000D14092E037C9B22FA0E0622793E032C960
:10F5D000822F90E0A82BB92B622794E02BC92E3004
:10F5E00009F039C3622795E0C05DDE4F19821882A9
:10F5F000C053D1401FC9E1E0F0E0EC0FFD1FC05D3A
:10F60000DE4F08811981C053D140E00FF11F2083E4
:10F610000F5F1F4FC05DDE4F19830883C053D14079
:10F6200062270A171B0709F005C9D80196E002C92D
:10F63000261709F010C303C0973009F0FBC87724E0
:10F640009981933109F412C19431C8F4963009F4C8
:10F65000D8C0973050F4923009F406C1933009F4C1
:10F660006DC0913009F059C253C0913109F477C08F
:10F67000923108F0BBC0903109F04FC2F5C098310B
:10F6800009F487C0993150F4953109F4EFC09531F0
:10F6900008F4C6C1963109F040C2C2C19A3109F4DA
:10F6A0006CC09A3108F491C09B3109F45BC09D3164
:10F6B00009F033C29D81903359F48F81882311F46E
:10F6C0009EE11CC0813011F091E018C098E916C08D
:10F6D000892F807591F0903539F4E0E0F0E089E011
:10F6E0008093570094910AC0983539F4E3E0F0E034
:10F6F00089E080935700949101C090E01A821B82A8
:10F700008D818C831D829E831F8227E030E009C299
:10F710001A8288E08B8381E48C8386E58D8382E581
:10F720008E8389E48F8383E5888780E589878FE5E9
:10F730008A8782E38B872BE030E0F3C18A818139AD
:10F7400041F0823941F0803911F48FE005C080E04A
:10F7500003C082E001C08AE01A828B8344C0772410
:10F76000739482C08D81882311F48EE12CC0813086
:10F7700011F081E028C088E926C01A82E1E0F0E0BB
:10F7800089E08093570084918B831C8224E030E0D1
:10F79000C8C18B81803589F48C81883039F4E2E0EE
:10F7A000F0E089E08093570084910DC0E0E0F0E044
:10F7B00089E080935700849106C0E3E0F0E089E09F
:10F7C0008093570084911A82DFCF8D81836C99E0FA
:10F7D000E1E0F0E0082E90935700E89507B600FCB2
:10F7E000FDCF1A821B8223E030E09BC180EC8A832C
:10F7F000CE5CDE4F188219821A821B82C253D1401E
:10F800008EC18A8190E0A0E0B0E0582F44273327D2
:10F8100022278B8190E0A0E0B0E0DC0199278827C7
:10F82000282B392B4A2B5B2B8D8190E0A0E0B0E098
:10F83000282B392B4A2B5B2B8C8190E0A0E0B0E089
:10F84000BA2FA92F982F8827282B392B4A2B5B2BCF
:10F85000220F331F441F551FC05EDE4F288339839C
:10F860004A835B83C052D1401A8259C13A81C95C34
:10F87000DE4F3883C753D140CA5CDE4F1882C6536F
:10F88000D1408B81C82EDD24CA5CDE4F488159816E
:10F89000C653D140C42AD52A933109F082C0CE5C28
:10F8A000DE4F88819981AA81BB81C253D1408050AB
:10F8B000904CA340B04030F583E0CE5CDE4FE88052
:10F8C000F9800A811B81C253D140F70100935B008C
:10F8D00080935700E89507B600FCFDCFCE5CDE4F65
:10F8E000088119812A813B81C253D14000501F4FAA
:10F8F0002F4F3F4FCE5CDE4F088319832A833B8313
:10F90000C253D140C05EDE4F488159816A817B81FC
:10F91000C052D140DE011B9631E08C9111962C91A2
:10F9200011971296C75CDE4F2883C953D140C85C3B
:10F93000DE4F1882C853D14090E0C85CDE4FE881AA
:10F94000F981C853D1408E2B9F2B0C01FA01609393
:10F950005B0030935700E89511244E5F5F4F6F4F67
:10F960007F4F0EEFE02E0FEFF02ECE0CDF1CC114F8
:10F97000D10499F685E0C05EDE4F088119812A81A5
:10F980003B81C052D140F80120935B008093570027
:10F99000E89507B600FCFDCF81E180935700E8951C
:10F9A00035C0C05EDE4F88819981AA81BB81C0527B
:10F9B000D140B695A795979587957C018601ABE0D8
:10F9C000AA2EB12CAC0EBD1E0BC0D5016D915D01F0
:10F9D000C7010F947FFE0894E11CF11C01501040F8
:10F9E0000115110591F7A60160E070E0440F551F65
:10F9F000661F771FC05EDE4FE880F9800A811B8199
:10FA0000C052D1404E0D5F1D601F711F1A82C05E33
:10FA1000DE4F488359836A837B83C052D1407FC0C5
:10FA2000FA80C55CDE4FF882CB53D140C65CDE4F16
:10FA30001882CA53D1408B81C82EDD24C65CDE4FAC
:10FA400008811981CA53D140C02AD12A1A828981DA
:10FA5000BE016D5F7F4F843121F59601C05EDE4FA0
:10FA6000E880F9800A811B81C052D1400BBFF701A9
:10FA700087919691DB018C9311969C936E5F7F4FDB
:10FA8000D801C7010296A11DB11DC05EDE4F88835B
:10FA90009983AA83BB83C052D14022503040F1F6F3
:10FAA00036C0C05EDE4F288139814A815B81C052F9
:10FAB000D1400894C108D108760100E010E0089414
:10FAC000C11CD11C0894E11CF11C011D111DE20E8A
:10FAD000F31E041F151F21BDBB27A52F942F832FB5
:10FAE00082BD2F5F3F4F4F4F5F4FF89A80B5DB01CC
:10FAF0008D93BD012E153F054007510761F7C05E8C
:10FB0000DE4F288339834A835B83C052D1409601FC
:10FB10002D5F3F4FFB01108204C080EC8A8322E0FE
:10FB200030E08BE18093C6008091C00086FFFCCF5F
:10FB30008091C00080648093C000C15DDE4FF88179
:10FB4000CF52D140F093C6008091C00086FFFCCF19
:10FB50008091C00080648093C000432F3093C60022
:10FB60008091C00086FFFCCF8091C00080648093AC
:10FB7000C000922F2093C6008091C00086FFFCCF6A
:10FB80008091C00080648093C0008EE08093C600A6
:10FB90008091C00086FFFCCF8091C000806480937C
:10FBA000C00065E1C15DDE4FE880CF52D1406E25D7
:10FBB00069276427FE01319610C090819093C6009A
:10FBC0008091C00086FFFCCF31968091C000806498
:10FBD0008093C0006927215030402115310569F715
:10FBE0006093C6008091C00086FFFCCF8091C0006A
:10FBF00080648093C00085B1805885B9772081F4F6
:10FC0000C15DDE4F0881CF52D1400F5FC15DDE4F35
:10FC10000883CF52D14090E0A0E0B0E00D941AF4F8
:10FC200027982F9880E090E020ED37E0F901319798
:10FC3000F1F7019684369105C9F700008091C00064
:10FC40008D7F8093C00081E180935700E895EE2777
:10FC5000FF270994FFCF90E00D941AF497FB092E2B
:10FC600007260AD077FD04D02ED006D000201AF443
:10FC7000709561957F4F0895F6F7909581959F4F08
:10FC80000895A1E21A2EAA1BBB1BFD010DC0AA1FDD
:10FC9000BB1FEE1FFF1FA217B307E407F50720F0F5
:10FCA000A21BB30BE40BF50B661F771F881F991F70
:10FCB0001A9469F760957095809590959B01AC01B9
:10FCC000BD01CF010895AA1BBB1B51E107C0AA1FAC
:10FCD000BB1FA617B70710F0A61BB70B881F991FED
:10FCE0005A95A9F780959095BC01CD010895F99991
:10FCF000FECF92BD81BDF89A992780B50895262F31
:10FD0000F999FECF1FBA92BD81BD20BD0FB6F89400
:0EFD1000FA9AF99A0FBE01960895F894FFCF63
:00000001FF
